{
  "contractName": "HodlersDilemma",
  "abi": [
    {
      "constant": true,
      "inputs": [
        {
          "name": "",
          "type": "uint256"
        }
      ],
      "name": "games",
      "outputs": [
        {
          "name": "player1",
          "type": "address"
        },
        {
          "name": "player2",
          "type": "address"
        },
        {
          "name": "wager",
          "type": "uint256"
        },
        {
          "name": "expiration",
          "type": "uint256"
        },
        {
          "name": "player1Commitment",
          "type": "bytes32"
        },
        {
          "name": "player2Choice",
          "type": "bytes5"
        },
        {
          "name": "complete",
          "type": "bool"
        }
      ],
      "payable": false,
      "stateMutability": "view",
      "type": "function"
    },
    {
      "constant": true,
      "inputs": [],
      "name": "payoutBank",
      "outputs": [
        {
          "name": "",
          "type": "uint256"
        }
      ],
      "payable": false,
      "stateMutability": "view",
      "type": "function"
    },
    {
      "constant": true,
      "inputs": [],
      "name": "owner",
      "outputs": [
        {
          "name": "",
          "type": "address"
        }
      ],
      "payable": false,
      "stateMutability": "view",
      "type": "function"
    },
    {
      "constant": true,
      "inputs": [],
      "name": "gameExpiration",
      "outputs": [
        {
          "name": "",
          "type": "uint256"
        }
      ],
      "payable": false,
      "stateMutability": "view",
      "type": "function"
    },
    {
      "constant": true,
      "inputs": [],
      "name": "gameWager",
      "outputs": [
        {
          "name": "",
          "type": "uint256"
        }
      ],
      "payable": false,
      "stateMutability": "view",
      "type": "function"
    },
    {
      "constant": true,
      "inputs": [],
      "name": "gameFee",
      "outputs": [
        {
          "name": "",
          "type": "uint128"
        }
      ],
      "payable": false,
      "stateMutability": "view",
      "type": "function"
    },
    {
      "inputs": [
        {
          "name": "_gameWager",
          "type": "uint256"
        }
      ],
      "payable": true,
      "stateMutability": "payable",
      "type": "constructor"
    },
    {
      "payable": true,
      "stateMutability": "payable",
      "type": "fallback"
    },
    {
      "anonymous": false,
      "inputs": [
        {
          "indexed": true,
          "name": "_player1",
          "type": "address"
        },
        {
          "indexed": false,
          "name": "_gameId",
          "type": "uint256"
        }
      ],
      "name": "StartGame",
      "type": "event"
    },
    {
      "anonymous": false,
      "inputs": [
        {
          "indexed": true,
          "name": "_player2",
          "type": "address"
        },
        {
          "indexed": false,
          "name": "_gameId",
          "type": "uint256"
        }
      ],
      "name": "JoinGame",
      "type": "event"
    },
    {
      "anonymous": false,
      "inputs": [
        {
          "indexed": true,
          "name": "_player1",
          "type": "address"
        },
        {
          "indexed": false,
          "name": "_gameId",
          "type": "uint256"
        }
      ],
      "name": "FinishGame",
      "type": "event"
    },
    {
      "constant": false,
      "inputs": [
        {
          "name": "_commitment",
          "type": "bytes32"
        }
      ],
      "name": "startGame",
      "outputs": [],
      "payable": true,
      "stateMutability": "payable",
      "type": "function"
    },
    {
      "constant": false,
      "inputs": [
        {
          "name": "_choice",
          "type": "bytes5"
        }
      ],
      "name": "joinGame",
      "outputs": [],
      "payable": true,
      "stateMutability": "payable",
      "type": "function"
    },
    {
      "constant": false,
      "inputs": [
        {
          "name": "_choice",
          "type": "bytes5"
        },
        {
          "name": "_nonce",
          "type": "uint256"
        }
      ],
      "name": "reveal",
      "outputs": [],
      "payable": false,
      "stateMutability": "nonpayable",
      "type": "function"
    },
    {
      "constant": false,
      "inputs": [],
      "name": "claimTimeout",
      "outputs": [],
      "payable": false,
      "stateMutability": "nonpayable",
      "type": "function"
    },
    {
      "constant": false,
      "inputs": [],
      "name": "cancel",
      "outputs": [],
      "payable": false,
      "stateMutability": "nonpayable",
      "type": "function"
    },
    {
      "constant": false,
      "inputs": [
        {
          "name": "_newGameWager",
          "type": "uint256"
        }
      ],
      "name": "changeGameWager",
      "outputs": [],
      "payable": false,
      "stateMutability": "nonpayable",
      "type": "function"
    },
    {
      "constant": false,
      "inputs": [
        {
          "name": "_newExpiration",
          "type": "uint256"
        }
      ],
      "name": "changeGameExpiration",
      "outputs": [],
      "payable": false,
      "stateMutability": "nonpayable",
      "type": "function"
    },
    {
      "constant": false,
      "inputs": [
        {
          "name": "_newGameFee",
          "type": "uint128"
        }
      ],
      "name": "changeGameFee",
      "outputs": [],
      "payable": false,
      "stateMutability": "nonpayable",
      "type": "function"
    },
    {
      "constant": false,
      "inputs": [],
      "name": "withdrawBalance",
      "outputs": [],
      "payable": false,
      "stateMutability": "nonpayable",
      "type": "function"
    }
  ],
  "bytecode": "0x6080604052600060025562093a8060035561012c600460006101000a8154816fffffffffffffffffffffffffffffffff02191690836fffffffffffffffffffffffffffffffff160217905550604051602080611e4083398101806040528101908080519060200190929190505050336000806101000a81548173ffffffffffffffffffffffffffffffffffffffff021916908373ffffffffffffffffffffffffffffffffffffffff1602179055508060018190555050611d7c806100c46000396000f3006080604052600436106100db576000357c0100000000000000000000000000000000000000000000000000000000900463ffffffff1680630de97ba5146100dd5780630e1da6c31461011c578063117a5b901461013357806329a8996e1461023e5780634c92fb121461026b5780634f1456b11461028f5780635fd8c710146102ba57806362c0e39a146102d157806377029b07146103265780638da5cb5b1461036457806395341efd146103bb578063a52b6cec146103e6578063c1b859dd14610413578063ea777eec1461043e578063ea8a1af01461048d575b005b3480156100e957600080fd5b5061011a60048036038101908080356fffffffffffffffffffffffffffffffff1690602001909291905050506104a4565b005b34801561012857600080fd5b5061013161053b565b005b34801561013f57600080fd5b5061015e6004803603810190808035906020019092919050505061086c565b604051808873ffffffffffffffffffffffffffffffffffffffff1673ffffffffffffffffffffffffffffffffffffffff1681526020018773ffffffffffffffffffffffffffffffffffffffff1673ffffffffffffffffffffffffffffffffffffffff1681526020018681526020018581526020018460001916600019168152602001837affffffffffffffffffffffffffffffffffffffffffffffffffffff19167affffffffffffffffffffffffffffffffffffffffffffffffffffff191681526020018215151515815260200197505050505050505060405180910390f35b34801561024a57600080fd5b5061026960048036038101908080359060200190929190505050610932565b005b61028d6004803603810190808035600019169060200190929190505050610997565b005b34801561029b57600080fd5b506102a4610c9e565b6040518082815260200191505060405180910390f35b3480156102c657600080fd5b506102cf610ca4565b005b3480156102dd57600080fd5b5061032460048036038101908080357affffffffffffffffffffffffffffffffffffffffffffffffffffff1916906020019092919080359060200190929190505050610da6565b005b61036260048036038101908080357affffffffffffffffffffffffffffffffffffffffffffffffffffff1916906020019092919050505061153c565b005b34801561037057600080fd5b5061037961184b565b604051808273ffffffffffffffffffffffffffffffffffffffff1673ffffffffffffffffffffffffffffffffffffffff16815260200191505060405180910390f35b3480156103c757600080fd5b506103d0611870565b6040518082815260200191505060405180910390f35b3480156103f257600080fd5b5061041160048036038101908080359060200190929190505050611876565b005b34801561041f57600080fd5b506104286118db565b6040518082815260200191505060405180910390f35b34801561044a57600080fd5b506104536118e1565b60405180826fffffffffffffffffffffffffffffffff166fffffffffffffffffffffffffffffffff16815260200191505060405180910390f35b34801561049957600080fd5b506104a2611903565b005b6000809054906101000a900473ffffffffffffffffffffffffffffffffffffffff1673ffffffffffffffffffffffffffffffffffffffff163373ffffffffffffffffffffffffffffffffffffffff161415156104ff57600080fd5b80600460006101000a8154816fffffffffffffffffffffffffffffffff02191690836fffffffffffffffffffffffffffffffff16021790555050565b6000806000600660003373ffffffffffffffffffffffffffffffffffffffff1673ffffffffffffffffffffffffffffffffffffffff16815260200190815260200160002054925060058381548110151561059157fe5b906000526020600020906006020191503373ffffffffffffffffffffffffffffffffffffffff168260010160009054906101000a900473ffffffffffffffffffffffffffffffffffffffff1673ffffffffffffffffffffffffffffffffffffffff16148015610604575081600301544210155b80156106255750600015158260050160059054906101000a900460ff161515145b151561063057600080fd5b60018260050160056101000a81548160ff021916908315150217905550816002015460026000828254039250508190555061066a83611acb565b7f737465616c0000000000000000000000000000000000000000000000000000008260050160009054906101000a90047b01000000000000000000000000000000000000000000000000000000027affffffffffffffffffffffffffffffffffffffffffffffffffffff19161415610761578160010160009054906101000a900473ffffffffffffffffffffffffffffffffffffffff1673ffffffffffffffffffffffffffffffffffffffff166108fc6107278460020154611b8f565b6002856002015402039081150290604051600060405180830381858888f1935050505015801561075b573d6000803e3d6000fd5b50610867565b7f73706c69740000000000000000000000000000000000000000000000000000008260050160009054906101000a90047b01000000000000000000000000000000000000000000000000000000027affffffffffffffffffffffffffffffffffffffffffffffffffffff19161415610866576107e08260020154611b8f565b600283600201548115156107f057fe5b040390508160010160009054906101000a900473ffffffffffffffffffffffffffffffffffffffff1673ffffffffffffffffffffffffffffffffffffffff166108fc828460020154019081150290604051600060405180830381858888f19350505050158015610864573d6000803e3d6000fd5b505b5b505050565b60058181548110151561087b57fe5b90600052602060002090600602016000915090508060000160009054906101000a900473ffffffffffffffffffffffffffffffffffffffff16908060010160009054906101000a900473ffffffffffffffffffffffffffffffffffffffff16908060020154908060030154908060040154908060050160009054906101000a90047b0100000000000000000000000000000000000000000000000000000002908060050160059054906101000a900460ff16905087565b6000809054906101000a900473ffffffffffffffffffffffffffffffffffffffff1673ffffffffffffffffffffffffffffffffffffffff163373ffffffffffffffffffffffffffffffffffffffff1614151561098d57600080fd5b8060038190555050565b61099f611c72565b6000600154341415156109b157600080fd5b346002543073ffffffffffffffffffffffffffffffffffffffff163103101515156109db57600080fd5b60e0604051908101604052803373ffffffffffffffffffffffffffffffffffffffff168152602001600073ffffffffffffffffffffffffffffffffffffffff168152602001348152602001600081526020018460001916815260200160007b01000000000000000000000000000000000000000000000000000000027affffffffffffffffffffffffffffffffffffffffffffffffffffff1916815260200160001515815250915060016005839080600181540180825580915050906001820390600052602060002090600602016000909192909190915060008201518160000160006101000a81548173ffffffffffffffffffffffffffffffffffffffff021916908373ffffffffffffffffffffffffffffffffffffffff16021790555060208201518160010160006101000a81548173ffffffffffffffffffffffffffffffffffffffff021916908373ffffffffffffffffffffffffffffffffffffffff16021790555060408201518160020155606082015181600301556080820151816004019060001916905560a08201518160050160006101000a81548164ffffffffff02191690837b010000000000000000000000000000000000000000000000000000009004021790555060c08201518160050160056101000a81548160ff021916908315150217905550505003905080600660003373ffffffffffffffffffffffffffffffffffffffff1673ffffffffffffffffffffffffffffffffffffffff168152602001908152602001600020819055506007819080600181540180825580915050906001820390600052602060002001600090919290919091505550346002600082825401925050819055503373ffffffffffffffffffffffffffffffffffffffff167f827a821cc7b9cae4c0baef42ee9cdeb791722ab1aa43532c255ea468ea6d5b1d826040518082815260200191505060405180910390a2505050565b60025481565b6000809054906101000a900473ffffffffffffffffffffffffffffffffffffffff1673ffffffffffffffffffffffffffffffffffffffff163373ffffffffffffffffffffffffffffffffffffffff16141515610cff57600080fd5b6002543073ffffffffffffffffffffffffffffffffffffffff16311115610da4576000809054906101000a900473ffffffffffffffffffffffffffffffffffffffff1673ffffffffffffffffffffffffffffffffffffffff166108fc6002543073ffffffffffffffffffffffffffffffffffffffff1631039081150290604051600060405180830381858888f19350505050158015610da2573d6000803e3d6000fd5b505b565b6000806000847f73706c6974000000000000000000000000000000000000000000000000000000817affffffffffffffffffffffffffffffffffffffffffffffffffffff19161480610e3557507f737465616c000000000000000000000000000000000000000000000000000000817affffffffffffffffffffffffffffffffffffffffffffffffffffff1916145b1515610e4057600080fd5b600660003373ffffffffffffffffffffffffffffffffffffffff1673ffffffffffffffffffffffffffffffffffffffff168152602001908152602001600020549350600584815481101515610e9157fe5b906000526020600020906006020192503373ffffffffffffffffffffffffffffffffffffffff168360000160009054906101000a900473ffffffffffffffffffffffffffffffffffffffff1673ffffffffffffffffffffffffffffffffffffffff16148015610f515750600073ffffffffffffffffffffffffffffffffffffffff168360010160009054906101000a900473ffffffffffffffffffffffffffffffffffffffff1673ffffffffffffffffffffffffffffffffffffffff1614155b8015610f725750600015158360050160059054906101000a900460ff161515145b8015610f815750428360030154115b1515610f8c57600080fd5b826004015460001916868660405160200180837affffffffffffffffffffffffffffffffffffffffffffffffffffff19167affffffffffffffffffffffffffffffffffffffffffffffffffffff19168152600501828152602001925050506040516020818303038152906040526040518082805190602001908083835b60208310151561102e5780518252602082019150602081019050602083039250611009565b6001836020036101000a03801982511681845116808217855250505050505090500191505060405180910390206000191614151561106b57600080fd5b60018360050160056101000a81548160ff0219169083151502179055507f73706c6974000000000000000000000000000000000000000000000000000000867affffffffffffffffffffffffffffffffffffffffffffffffffffff191614801561113e57507f73706c69740000000000000000000000000000000000000000000000000000008360050160009054906101000a90047b01000000000000000000000000000000000000000000000000000000027affffffffffffffffffffffffffffffffffffffffffffffffffffff1916145b1561124b576111508360020154611b8f565b6002846002015481151561116057fe5b040391508260000160009054906101000a900473ffffffffffffffffffffffffffffffffffffffff1673ffffffffffffffffffffffffffffffffffffffff166108fc838560020154019081150290604051600060405180830381858888f193505050501580156111d4573d6000803e3d6000fd5b508260010160009054906101000a900473ffffffffffffffffffffffffffffffffffffffff1673ffffffffffffffffffffffffffffffffffffffff166108fc838560020154019081150290604051600060405180830381858888f19350505050158015611245573d6000803e3d6000fd5b506114c9565b7f737465616c000000000000000000000000000000000000000000000000000000867affffffffffffffffffffffffffffffffffffffffffffffffffffff191614801561130157507f73706c69740000000000000000000000000000000000000000000000000000008360050160009054906101000a90047b01000000000000000000000000000000000000000000000000000000027affffffffffffffffffffffffffffffffffffffffffffffffffffff1916145b1561138b578260000160009054906101000a900473ffffffffffffffffffffffffffffffffffffffff1673ffffffffffffffffffffffffffffffffffffffff166108fc6113518560020154611b8f565b6002866002015402039081150290604051600060405180830381858888f19350505050158015611385573d6000803e3d6000fd5b506114c8565b7f73706c6974000000000000000000000000000000000000000000000000000000867affffffffffffffffffffffffffffffffffffffffffffffffffffff191614801561144157507f737465616c0000000000000000000000000000000000000000000000000000008360050160009054906101000a90047b01000000000000000000000000000000000000000000000000000000027affffffffffffffffffffffffffffffffffffffffffffffffffffff1916145b156114c7578260010160009054906101000a900473ffffffffffffffffffffffffffffffffffffffff1673ffffffffffffffffffffffffffffffffffffffff166108fc6114918560020154611b8f565b6002866002015402039081150290604051600060405180830381858888f193505050501580156114c5573d6000803e3d6000fd5b505b5b5b82600201546002600082825403925050819055506114e684611acb565b3373ffffffffffffffffffffffffffffffffffffffff167f7492d45e750aae8bf5eba37cb25a69256116f8afdd622fd438196eb02b062d10856040518082815260200191505060405180910390a2505050505050565b6000806000837f73706c6974000000000000000000000000000000000000000000000000000000817affffffffffffffffffffffffffffffffffffffffffffffffffffff191614806115cb57507f737465616c000000000000000000000000000000000000000000000000000000817affffffffffffffffffffffffffffffffffffffffffffffffffffff1916145b15156115d657600080fd5b6115e4600780549050611bd8565b93506007848154811015156115f557fe5b9060005260206000200154925060058381548110151561161157fe5b90600052602060002090600602019150600073ffffffffffffffffffffffffffffffffffffffff168260000160009054906101000a900473ffffffffffffffffffffffffffffffffffffffff1673ffffffffffffffffffffffffffffffffffffffff16141580156116d257503373ffffffffffffffffffffffffffffffffffffffff168260000160009054906101000a900473ffffffffffffffffffffffffffffffffffffffff1673ffffffffffffffffffffffffffffffffffffffff1614155b801561172e5750600073ffffffffffffffffffffffffffffffffffffffff168260010160009054906101000a900473ffffffffffffffffffffffffffffffffffffffff1673ffffffffffffffffffffffffffffffffffffffff16145b801561173d5750348260020154145b801561175e5750600015158260050160059054906101000a900460ff161515145b151561176957600080fd5b338260010160006101000a81548173ffffffffffffffffffffffffffffffffffffffff021916908373ffffffffffffffffffffffffffffffffffffffff160217905550848260050160006101000a81548164ffffffffff02191690837b0100000000000000000000000000000000000000000000000000000090040217905550600354420182600301819055503373ffffffffffffffffffffffffffffffffffffffff167f35cced5cc46ab3a9dd12ae635ecd1ecec4b0d64b637b53638b754aa7ad48640b846040518082815260200191505060405180910390a25050505050565b6000809054906101000a900473ffffffffffffffffffffffffffffffffffffffff1681565b60035481565b6000809054906101000a900473ffffffffffffffffffffffffffffffffffffffff1673ffffffffffffffffffffffffffffffffffffffff163373ffffffffffffffffffffffffffffffffffffffff161415156118d157600080fd5b8060018190555050565b60015481565b600460009054906101000a90046fffffffffffffffffffffffffffffffff1681565b600080600660003373ffffffffffffffffffffffffffffffffffffffff1673ffffffffffffffffffffffffffffffffffffffff16815260200190815260200160002054915060058281548110151561195757fe5b906000526020600020906006020190503373ffffffffffffffffffffffffffffffffffffffff168160000160009054906101000a900473ffffffffffffffffffffffffffffffffffffffff1673ffffffffffffffffffffffffffffffffffffffff16148015611a165750600073ffffffffffffffffffffffffffffffffffffffff168160010160009054906101000a900473ffffffffffffffffffffffffffffffffffffffff1673ffffffffffffffffffffffffffffffffffffffff16145b8015611a375750600015158160050160059054906101000a900460ff161515145b1515611a4257600080fd5b60018160050160056101000a81548160ff0219169083151502179055508060020154600260008282540392505081905550611a7c82611acb565b3373ffffffffffffffffffffffffffffffffffffffff166108fc82600201549081150290604051600060405180830381858888f19350505050158015611ac6573d6000803e3d6000fd5b505050565b60008090505b600780549050811015611b505781600782815481101515611aee57fe5b90600052602060002001541415611b43576007600160078054905003815481101515611b1657fe5b9060005260206000200154600782815481101515611b3057fe5b9060005260206000200181905550611b50565b8080600101915050611ad1565b6007600160078054905003815481101515611b6757fe5b90600052602060002001600090556007805480919060019003611b8a9190611cff565b505050565b6000612710600460009054906101000a90046fffffffffffffffffffffffffffffffff166fffffffffffffffffffffffffffffffff168302811515611bd057fe5b049050919050565b60008142604051602001808281526020019150506040516020818303038152906040526040518082805190602001908083835b602083101515611c305780518252602082019150602081019050602083039250611c0b565b6001836020036101000a038019825116818451168082178552505050505050905001915050604051809103902060019004811515611c6a57fe5b069050919050565b60e060405190810160405280600073ffffffffffffffffffffffffffffffffffffffff168152602001600073ffffffffffffffffffffffffffffffffffffffff16815260200160008152602001600081526020016000801916815260200160007affffffffffffffffffffffffffffffffffffffffffffffffffffff191681526020016000151581525090565b815481835581811115611d2657818360005260206000209182019101611d259190611d2b565b5b505050565b611d4d91905b80821115611d49576000816000905550600101611d31565b5090565b905600a165627a7a72305820f667548a174a02546cb71f0907a4a0700d16f92cd55960fb64eb31701c4535bb0029",
  "source": "pragma solidity ^0.4.24;\n\ncontract HodlersDilemma {\n  address public owner;\n  uint256 public gameWager;\n  uint256 public payoutBank = 0;\n  uint256 public gameExpiration = 7 days;\n  uint128 public gameFee = 300; // 3%\n\n  struct Game {\n    address player1;\n    address player2;\n\n    uint256 wager;\n    uint256 expiration;\n\n    bytes32 player1Commitment;\n    bytes5 player2Choice;\n\n    bool complete;\n  }\n\n  Game[] public games;\n\n  mapping(address => uint256) playerToGame;\n\n  uint256[] incompleteGames;\n\n  event StartGame(\n    address indexed _player1,\n    uint256 _gameId\n  );\n\n  event JoinGame(\n    address indexed _player2,\n    uint256 _gameId\n  );\n\n  event FinishGame(\n    address indexed _player1,\n    uint256 _gameId\n  );\n\n  modifier onlyOwner() {\n    require(msg.sender == owner);\n    _;\n  }\n\n  modifier hasPaid() {\n    require(msg.value == gameWager);\n    _;\n  }\n\n  modifier splitOrSteal(bytes5 _choice) {\n    require(_choice == 'split' || _choice == 'steal');\n    _;\n  }\n\n  constructor(uint256 _gameWager) public payable {\n    owner = msg.sender;\n    gameWager = _gameWager;\n  }\n\n  function startGame(bytes32 _commitment) public payable hasPaid {\n    // ensure contract balance will have enough to payout winnings\n    require(address(this).balance - payoutBank >= msg.value);\n\n    Game memory _game = Game({\n      player1: msg.sender,\n      player2 : address(0),\n      player1Commitment: _commitment,\n      player2Choice: 0,\n      wager: msg.value,\n      expiration: 0,\n      complete: false\n    });\n\n    uint256 newGameId = games.push(_game) - 1;\n    playerToGame[msg.sender] = newGameId;\n    incompleteGames.push(newGameId);\n\n    payoutBank += msg.value;\n\n    emit StartGame(msg.sender, newGameId);\n  }\n\n  function joinGame(bytes5 _choice) public payable splitOrSteal(_choice) {\n    uint256 index = _getUnplannedGame(incompleteGames.length);\n    uint256 gameId = incompleteGames[index];\n\n    Game storage game = games[gameId];\n    require (\n      game.player1 != address(0) && \n      game.player1 != msg.sender && \n      game.player2 == address(0) && \n      game.wager == msg.value && \n      game.complete == false\n    );\n\n    game.player2 = msg.sender;\n    game.player2Choice = _choice;\n    game.expiration = now + gameExpiration;\n\n    emit JoinGame(msg.sender, gameId);\n  }\n\n  function reveal(bytes5 _choice, uint256 _nonce) public splitOrSteal(_choice) {\n    uint256 _gameId = playerToGame[msg.sender];\n    Game storage game = games[_gameId];\n\n    require(\n      game.player1 == msg.sender && \n      game.player2 != address(0) && \n      game.complete == false &&\n      game.expiration > now\n    );\n\n    require(keccak256(abi.encodePacked(_choice, _nonce)) == game.player1Commitment);\n    game.complete = true;\n\n    if (_choice == 'split' && game.player2Choice == 'split') {\n      // send original wager + half the winnings to each player\n      uint256 reward = (game.wager / 2) - _calcFee(game.wager);\n      game.player1.transfer(game.wager + reward);\n      game.player2.transfer(game.wager + reward);\n    } else if (_choice == 'steal' && game.player2Choice == 'split') {\n      // send player1 wager and all winnings\n      game.player1.transfer( (game.wager * 2) - _calcFee(game.wager) );\n    } else if (_choice == 'split' && game.player2Choice == 'steal') {\n      // send player2 wager and all winnings\n      game.player2.transfer( (game.wager * 2) - _calcFee(game.wager) );\n    }\n    // steal-steal contract keeps wagers\n\n    payoutBank -= game.wager;\n\n    // deleting finished game from incompleteGames and filling gap left in array\n    _deleteFromIncompleteGames(_gameId);\n\n    emit FinishGame(msg.sender, _gameId);\n  }\n\n  // claimTimeout can be called by player2 in the event that\n  // player1 has not revealed their answer by the time the game\n  // has expired. Player2 is rewarded based on the optimal outcome\n  // for their answer.\n  function claimTimeout() public {\n    uint256 _gameId = playerToGame[msg.sender];\n    Game storage game = games[_gameId];\n\n    require(\n      game.player2 == msg.sender && \n      now >= game.expiration && \n      game.complete == false\n    );\n\n    game.complete = true;\n    payoutBank -= game.wager;\n    _deleteFromIncompleteGames(_gameId);\n\n    if (game.player2Choice == 'steal') {\n      game.player2.transfer( (game.wager * 2) - _calcFee(game.wager) );\n    } else if (game.player2Choice == 'split') {\n      uint256 reward = (game.wager / 2) - _calcFee(game.wager);\n      game.player2.transfer(game.wager + reward);\n    }\n  }\n\n  function cancel() public {\n    uint256 _gameId = playerToGame[msg.sender];\n    Game storage game = games[_gameId];\n\n    require(\n      game.player1 == msg.sender && \n      game.player2 == address(0) && \n      game.complete == false\n    );\n\n    game.complete = true;\n    payoutBank -= game.wager;\n    _deleteFromIncompleteGames(_gameId);\n\n    msg.sender.transfer(game.wager);\n  }\n\n  function _getUnplannedGame(uint256 _max) internal view returns(uint256) {\n    /*\n    * Not adding one to result of modulo because we are passing the length\n    * of the array which is already one greater than highest index\n    */\n    return uint256(keccak256(abi.encodePacked(block.timestamp))) % _max;\n  }\n\n  function _deleteFromIncompleteGames(uint256 _gameId) internal {\n    for (uint i = 0; i < incompleteGames.length; i++) {\n      if (incompleteGames[i] == _gameId) {\n        incompleteGames[i] = incompleteGames[incompleteGames.length-1];\n        break;\n      }\n    }\n\n    delete incompleteGames[incompleteGames.length-1];\n    incompleteGames.length--;\n  }\n\n  function _calcFee(uint256 _reward) internal view returns(uint256) {\n    return _reward * gameFee / 10000;\n  }\n\n  function changeGameWager(uint256 _newGameWager) public onlyOwner {\n    gameWager = _newGameWager;\n  }\n\n  function changeGameExpiration(uint256 _newExpiration) public onlyOwner {\n    gameExpiration = _newExpiration;\n  }\n\n  function changeGameFee(uint128 _newGameFee) public onlyOwner {\n    gameFee = _newGameFee;\n  }\n\n  function withdrawBalance() external onlyOwner {\n    if (address(this).balance > payoutBank) {\n      owner.transfer(address(this).balance - payoutBank);\n    }\n  }\n\n  function() public payable {}\n}",
  "sourcePath": "/Users/sslade/projects/hodlers-dilemma/contracts/HodlersDilemma.sol",
  "compiler": {
    "name": "solc",
    "version": "0.4.24+commit.e67f0147.Emscripten.clang"
  },
  "schemaVersion": "2.0.1",
  "updatedAt": "2018-09-20T05:29:32.552Z"
}